{
  "contractName": "Dapper",
  "abi": [
    {
      "inputs": [
        {
          "internalType": "address",
          "name": "_proxyRegistryAddress",
          "type": "address"
        }
      ],
      "stateMutability": "nonpayable",
      "type": "constructor"
    },
    {
      "anonymous": false,
      "inputs": [
        {
          "indexed": true,
          "internalType": "address",
          "name": "owner",
          "type": "address"
        },
        {
          "indexed": true,
          "internalType": "address",
          "name": "approved",
          "type": "address"
        },
        {
          "indexed": true,
          "internalType": "uint256",
          "name": "tokenId",
          "type": "uint256"
        }
      ],
      "name": "Approval",
      "type": "event"
    },
    {
      "anonymous": false,
      "inputs": [
        {
          "indexed": true,
          "internalType": "address",
          "name": "owner",
          "type": "address"
        },
        {
          "indexed": true,
          "internalType": "address",
          "name": "operator",
          "type": "address"
        },
        {
          "indexed": false,
          "internalType": "bool",
          "name": "approved",
          "type": "bool"
        }
      ],
      "name": "ApprovalForAll",
      "type": "event"
    },
    {
      "anonymous": false,
      "inputs": [
        {
          "indexed": true,
          "internalType": "address",
          "name": "previousOwner",
          "type": "address"
        },
        {
          "indexed": true,
          "internalType": "address",
          "name": "newOwner",
          "type": "address"
        }
      ],
      "name": "OwnershipTransferred",
      "type": "event"
    },
    {
      "anonymous": false,
      "inputs": [
        {
          "indexed": true,
          "internalType": "address",
          "name": "from",
          "type": "address"
        },
        {
          "indexed": true,
          "internalType": "address",
          "name": "to",
          "type": "address"
        },
        {
          "indexed": true,
          "internalType": "uint256",
          "name": "tokenId",
          "type": "uint256"
        }
      ],
      "name": "Transfer",
      "type": "event"
    },
    {
      "inputs": [
        {
          "internalType": "address",
          "name": "to",
          "type": "address"
        },
        {
          "internalType": "uint256",
          "name": "tokenId",
          "type": "uint256"
        }
      ],
      "name": "approve",
      "outputs": [],
      "stateMutability": "nonpayable",
      "type": "function"
    },
    {
      "inputs": [
        {
          "internalType": "address",
          "name": "owner",
          "type": "address"
        }
      ],
      "name": "balanceOf",
      "outputs": [
        {
          "internalType": "uint256",
          "name": "",
          "type": "uint256"
        }
      ],
      "stateMutability": "view",
      "type": "function",
      "constant": true
    },
    {
      "inputs": [],
      "name": "baseURI",
      "outputs": [
        {
          "internalType": "string",
          "name": "",
          "type": "string"
        }
      ],
      "stateMutability": "view",
      "type": "function",
      "constant": true
    },
    {
      "inputs": [
        {
          "internalType": "uint256",
          "name": "tokenId",
          "type": "uint256"
        }
      ],
      "name": "getApproved",
      "outputs": [
        {
          "internalType": "address",
          "name": "",
          "type": "address"
        }
      ],
      "stateMutability": "view",
      "type": "function",
      "constant": true
    },
    {
      "inputs": [],
      "name": "getLastMintedTokenCount",
      "outputs": [
        {
          "internalType": "uint256",
          "name": "",
          "type": "uint256"
        }
      ],
      "stateMutability": "view",
      "type": "function",
      "constant": true
    },
    {
      "inputs": [
        {
          "internalType": "address",
          "name": "owner",
          "type": "address"
        },
        {
          "internalType": "address",
          "name": "operator",
          "type": "address"
        }
      ],
      "name": "isApprovedForAll",
      "outputs": [
        {
          "internalType": "bool",
          "name": "",
          "type": "bool"
        }
      ],
      "stateMutability": "view",
      "type": "function",
      "constant": true
    },
    {
      "inputs": [],
      "name": "name",
      "outputs": [
        {
          "internalType": "string",
          "name": "",
          "type": "string"
        }
      ],
      "stateMutability": "view",
      "type": "function",
      "constant": true
    },
    {
      "inputs": [],
      "name": "owner",
      "outputs": [
        {
          "internalType": "address",
          "name": "",
          "type": "address"
        }
      ],
      "stateMutability": "view",
      "type": "function",
      "constant": true
    },
    {
      "inputs": [
        {
          "internalType": "uint256",
          "name": "tokenId",
          "type": "uint256"
        }
      ],
      "name": "ownerOf",
      "outputs": [
        {
          "internalType": "address",
          "name": "",
          "type": "address"
        }
      ],
      "stateMutability": "view",
      "type": "function",
      "constant": true
    },
    {
      "inputs": [],
      "name": "renounceOwnership",
      "outputs": [],
      "stateMutability": "nonpayable",
      "type": "function"
    },
    {
      "inputs": [
        {
          "internalType": "address",
          "name": "from",
          "type": "address"
        },
        {
          "internalType": "address",
          "name": "to",
          "type": "address"
        },
        {
          "internalType": "uint256",
          "name": "tokenId",
          "type": "uint256"
        }
      ],
      "name": "safeTransferFrom",
      "outputs": [],
      "stateMutability": "nonpayable",
      "type": "function"
    },
    {
      "inputs": [
        {
          "internalType": "address",
          "name": "from",
          "type": "address"
        },
        {
          "internalType": "address",
          "name": "to",
          "type": "address"
        },
        {
          "internalType": "uint256",
          "name": "tokenId",
          "type": "uint256"
        },
        {
          "internalType": "bytes",
          "name": "_data",
          "type": "bytes"
        }
      ],
      "name": "safeTransferFrom",
      "outputs": [],
      "stateMutability": "nonpayable",
      "type": "function"
    },
    {
      "inputs": [
        {
          "internalType": "address",
          "name": "operator",
          "type": "address"
        },
        {
          "internalType": "bool",
          "name": "approved",
          "type": "bool"
        }
      ],
      "name": "setApprovalForAll",
      "outputs": [],
      "stateMutability": "nonpayable",
      "type": "function"
    },
    {
      "inputs": [
        {
          "internalType": "bytes4",
          "name": "interfaceId",
          "type": "bytes4"
        }
      ],
      "name": "supportsInterface",
      "outputs": [
        {
          "internalType": "bool",
          "name": "",
          "type": "bool"
        }
      ],
      "stateMutability": "view",
      "type": "function",
      "constant": true
    },
    {
      "inputs": [],
      "name": "symbol",
      "outputs": [
        {
          "internalType": "string",
          "name": "",
          "type": "string"
        }
      ],
      "stateMutability": "view",
      "type": "function",
      "constant": true
    },
    {
      "inputs": [
        {
          "internalType": "uint256",
          "name": "index",
          "type": "uint256"
        }
      ],
      "name": "tokenByIndex",
      "outputs": [
        {
          "internalType": "uint256",
          "name": "",
          "type": "uint256"
        }
      ],
      "stateMutability": "view",
      "type": "function",
      "constant": true
    },
    {
      "inputs": [
        {
          "internalType": "address",
          "name": "owner",
          "type": "address"
        },
        {
          "internalType": "uint256",
          "name": "index",
          "type": "uint256"
        }
      ],
      "name": "tokenOfOwnerByIndex",
      "outputs": [
        {
          "internalType": "uint256",
          "name": "",
          "type": "uint256"
        }
      ],
      "stateMutability": "view",
      "type": "function",
      "constant": true
    },
    {
      "inputs": [
        {
          "internalType": "uint256",
          "name": "_tokenId",
          "type": "uint256"
        }
      ],
      "name": "tokenURI",
      "outputs": [
        {
          "internalType": "string",
          "name": "",
          "type": "string"
        }
      ],
      "stateMutability": "view",
      "type": "function",
      "constant": true
    },
    {
      "inputs": [],
      "name": "totalSupply",
      "outputs": [
        {
          "internalType": "uint256",
          "name": "",
          "type": "uint256"
        }
      ],
      "stateMutability": "view",
      "type": "function",
      "constant": true
    },
    {
      "inputs": [
        {
          "internalType": "address",
          "name": "from",
          "type": "address"
        },
        {
          "internalType": "address",
          "name": "to",
          "type": "address"
        },
        {
          "internalType": "uint256",
          "name": "tokenId",
          "type": "uint256"
        }
      ],
      "name": "transferFrom",
      "outputs": [],
      "stateMutability": "nonpayable",
      "type": "function"
    },
    {
      "inputs": [
        {
          "internalType": "address",
          "name": "newOwner",
          "type": "address"
        }
      ],
      "name": "transferOwnership",
      "outputs": [],
      "stateMutability": "nonpayable",
      "type": "function"
    },
    {
      "inputs": [
        {
          "internalType": "address",
          "name": "_owner",
          "type": "address"
        }
      ],
      "name": "tokensOfOwner",
      "outputs": [
        {
          "internalType": "uint256[]",
          "name": "",
          "type": "uint256[]"
        }
      ],
      "stateMutability": "view",
      "type": "function",
      "constant": true
    },
    {
      "inputs": [
        {
          "internalType": "uint256[]",
          "name": "dapTokens",
          "type": "uint256[]"
        }
      ],
      "name": "mintDap",
      "outputs": [],
      "stateMutability": "payable",
      "type": "function",
      "payable": true
    },
    {
      "inputs": [],
      "name": "withdrawAll",
      "outputs": [],
      "stateMutability": "payable",
      "type": "function",
      "payable": true
    },
    {
      "inputs": [],
      "name": "baseTokenURI",
      "outputs": [
        {
          "internalType": "string",
          "name": "",
          "type": "string"
        }
      ],
      "stateMutability": "pure",
      "type": "function",
      "constant": true
    },
    {
      "inputs": [],
      "name": "contractURI",
      "outputs": [
        {
          "internalType": "string",
          "name": "",
          "type": "string"
        }
      ],
      "stateMutability": "view",
      "type": "function",
      "constant": true
    }
  ],
  "bytecode": "0x60806040526000600c553480156200001657600080fd5b5060405162003ab338038062003ab3833981810160405260208110156200003c57600080fd5b81019080805190602001909291905050506040518060400160405280600781526020017f44617070657273000000000000000000000000000000000000000000000000008152506040518060400160405280600381526020017f4441500000000000000000000000000000000000000000000000000000000000815250828282620000d46301ffc9a760e01b6200024c60201b60201c565b8160069080519060200190620000ec9291906200035d565b508060079080519060200190620001059291906200035d565b506200011e6380ac58cd60e01b6200024c60201b60201c565b62000136635b5e139f60e01b6200024c60201b60201c565b6200014e63780e9d6360e01b6200024c60201b60201c565b50506000620001626200035560201b60201c565b905080600a60006101000a81548173ffffffffffffffffffffffffffffffffffffffff021916908373ffffffffffffffffffffffffffffffffffffffff1602179055508073ffffffffffffffffffffffffffffffffffffffff16600073ffffffffffffffffffffffffffffffffffffffff167f8be0079c531659141344cd1fd0a4f28419497f9722a3daafe3b4186f6b6457e060405160405180910390a35080600b60006101000a81548173ffffffffffffffffffffffffffffffffffffffff021916908373ffffffffffffffffffffffffffffffffffffffff160217905550505050506200040c565b63ffffffff60e01b817bffffffffffffffffffffffffffffffffffffffffffffffffffffffff19161415620002e9576040517f08c379a000000000000000000000000000000000000000000000000000000000815260040180806020018281038252601c8152602001807f4552433136353a20696e76616c696420696e746572666163652069640000000081525060200191505060405180910390fd5b6001600080837bffffffffffffffffffffffffffffffffffffffffffffffffffffffff19167bffffffffffffffffffffffffffffffffffffffffffffffffffffffff1916815260200190815260200160002060006101000a81548160ff02191690831515021790555050565b600033905090565b828054600181600116156101000203166002900490600052602060002090601f016020900481019282601f10620003a057805160ff1916838001178555620003d1565b82800160010185558215620003d1579182015b82811115620003d0578251825591602001919060010190620003b3565b5b509050620003e09190620003e4565b5090565b6200040991905b8082111562000405576000816000905550600101620003eb565b5090565b90565b613697806200041c6000396000f3fe6080604052600436106101815760003560e01c8063715018a6116100d1578063a64bae401161008a578063d547cfb711610064578063d547cfb714610b61578063e8a3d48514610bf1578063e985e9c514610c81578063f2fde38b14610d0a57610181565b8063a64bae40146108e3578063b88d4fde1461099b578063c87b56dd14610aad57610181565b8063715018a6146106d85780638462151c146106ef578063853828b6146107955780638da5cb5b1461079f57806395d89b41146107f6578063a22cb4651461088657610181565b80632f745c591161013e5780634f6ccce7116101185780634f6ccce7146105195780636352211e146105685780636c0360eb146105e357806370a082311461067357610181565b80632f745c591461040457806342842e0e14610473578063472897c9146104ee57610181565b806301ffc9a71461018657806306fdde03146101f8578063081812fc14610288578063095ea7b31461030357806318160ddd1461035e57806323b872dd14610389575b600080fd5b34801561019257600080fd5b506101de600480360360208110156101a957600080fd5b8101908080357bffffffffffffffffffffffffffffffffffffffffffffffffffffffff19169060200190929190505050610d5b565b604051808215151515815260200191505060405180910390f35b34801561020457600080fd5b5061020d610dc2565b6040518080602001828103825283818151815260200191508051906020019080838360005b8381101561024d578082015181840152602081019050610232565b50505050905090810190601f16801561027a5780820380516001836020036101000a031916815260200191505b509250505060405180910390f35b34801561029457600080fd5b506102c1600480360360208110156102ab57600080fd5b8101908080359060200190929190505050610e64565b604051808273ffffffffffffffffffffffffffffffffffffffff1673ffffffffffffffffffffffffffffffffffffffff16815260200191505060405180910390f35b34801561030f57600080fd5b5061035c6004803603604081101561032657600080fd5b81019080803573ffffffffffffffffffffffffffffffffffffffff16906020019092919080359060200190929190505050610eff565b005b34801561036a57600080fd5b50610373611043565b6040518082815260200191505060405180910390f35b34801561039557600080fd5b50610402600480360360608110156103ac57600080fd5b81019080803573ffffffffffffffffffffffffffffffffffffffff169060200190929190803573ffffffffffffffffffffffffffffffffffffffff16906020019092919080359060200190929190505050611054565b005b34801561041057600080fd5b5061045d6004803603604081101561042757600080fd5b81019080803573ffffffffffffffffffffffffffffffffffffffff169060200190929190803590602001909291905050506110ca565b6040518082815260200191505060405180910390f35b34801561047f57600080fd5b506104ec6004803603606081101561049657600080fd5b81019080803573ffffffffffffffffffffffffffffffffffffffff169060200190929190803573ffffffffffffffffffffffffffffffffffffffff16906020019092919080359060200190929190505050611125565b005b3480156104fa57600080fd5b50610503611145565b6040518082815260200191505060405180910390f35b34801561052557600080fd5b506105526004803603602081101561053c57600080fd5b810190808035906020019092919050505061114f565b6040518082815260200191505060405180910390f35b34801561057457600080fd5b506105a16004803603602081101561058b57600080fd5b8101908080359060200190929190505050611172565b604051808273ffffffffffffffffffffffffffffffffffffffff1673ffffffffffffffffffffffffffffffffffffffff16815260200191505060405180910390f35b3480156105ef57600080fd5b506105f86111a9565b6040518080602001828103825283818151815260200191508051906020019080838360005b8381101561063857808201518184015260208101905061061d565b50505050905090810190601f1680156106655780820380516001836020036101000a031916815260200191505b509250505060405180910390f35b34801561067f57600080fd5b506106c26004803603602081101561069657600080fd5b81019080803573ffffffffffffffffffffffffffffffffffffffff16906020019092919050505061124b565b6040518082815260200191505060405180910390f35b3480156106e457600080fd5b506106ed611320565b005b3480156106fb57600080fd5b5061073e6004803603602081101561071257600080fd5b81019080803573ffffffffffffffffffffffffffffffffffffffff169060200190929190505050611490565b6040518080602001828103825283818151815260200191508051906020019060200280838360005b83811015610781578082015181840152602081019050610766565b505050509050019250505060405180910390f35b61079d61155e565b005b3480156107ab57600080fd5b506107b461164d565b604051808273ffffffffffffffffffffffffffffffffffffffff1673ffffffffffffffffffffffffffffffffffffffff16815260200191505060405180910390f35b34801561080257600080fd5b5061080b611677565b6040518080602001828103825283818151815260200191508051906020019080838360005b8381101561084b578082015181840152602081019050610830565b50505050905090810190601f1680156108785780820380516001836020036101000a031916815260200191505b509250505060405180910390f35b34801561089257600080fd5b506108e1600480360360408110156108a957600080fd5b81019080803573ffffffffffffffffffffffffffffffffffffffff169060200190929190803515159060200190929190505050611719565b005b610999600480360360208110156108f957600080fd5b810190808035906020019064010000000081111561091657600080fd5b82018360208201111561092857600080fd5b8035906020019184602083028401116401000000008311171561094a57600080fd5b919080806020026020016040519081016040528093929190818152602001838360200280828437600081840152601f19601f8201169050808301925050505050505091929192905050506118d1565b005b3480156109a757600080fd5b50610aab600480360360808110156109be57600080fd5b81019080803573ffffffffffffffffffffffffffffffffffffffff169060200190929190803573ffffffffffffffffffffffffffffffffffffffff1690602001909291908035906020019092919080359060200190640100000000811115610a2557600080fd5b820183602082011115610a3757600080fd5b80359060200191846001830284011164010000000083111715610a5957600080fd5b91908080601f016020809104026020016040519081016040528093929190818152602001838380828437600081840152601f19601f820116905080830192505050505050509192919290505050611916565b005b348015610ab957600080fd5b50610ae660048036036020811015610ad057600080fd5b810190808035906020019092919050505061198e565b6040518080602001828103825283818151815260200191508051906020019080838360005b83811015610b26578082015181840152602081019050610b0b565b50505050905090810190601f168015610b535780820380516001836020036101000a031916815260200191505b509250505060405180910390f35b348015610b6d57600080fd5b50610b766119b0565b6040518080602001828103825283818151815260200191508051906020019080838360005b83811015610bb6578082015181840152602081019050610b9b565b50505050905090810190601f168015610be35780820380516001836020036101000a031916815260200191505b509250505060405180910390f35b348015610bfd57600080fd5b50610c066119d0565b6040518080602001828103825283818151815260200191508051906020019080838360005b83811015610c46578082015181840152602081019050610c2b565b50505050905090810190601f168015610c735780820380516001836020036101000a031916815260200191505b509250505060405180910390f35b348015610c8d57600080fd5b50610cf060048036036040811015610ca457600080fd5b81019080803573ffffffffffffffffffffffffffffffffffffffff169060200190929190803573ffffffffffffffffffffffffffffffffffffffff1690602001909291905050506119f0565b604051808215151515815260200191505060405180910390f35b348015610d1657600080fd5b50610d5960048036036020811015610d2d57600080fd5b81019080803573ffffffffffffffffffffffffffffffffffffffff169060200190929190505050611b21565b005b6000806000837bffffffffffffffffffffffffffffffffffffffffffffffffffffffff19167bffffffffffffffffffffffffffffffffffffffffffffffffffffffff1916815260200190815260200160002060009054906101000a900460ff169050919050565b606060068054600181600116156101000203166002900480601f016020809104026020016040519081016040528092919081815260200182805460018160011615610100020316600290048015610e5a5780601f10610e2f57610100808354040283529160200191610e5a565b820191906000526020600020905b815481529060010190602001808311610e3d57829003601f168201915b5050505050905090565b6000610e6f82611d16565b610ec4576040517f08c379a000000000000000000000000000000000000000000000000000000000815260040180806020018281038252602c815260200180613558602c913960400191505060405180910390fd5b6004600083815260200190815260200160002060009054906101000a900473ffffffffffffffffffffffffffffffffffffffff169050919050565b6000610f0a82611172565b90508073ffffffffffffffffffffffffffffffffffffffff168373ffffffffffffffffffffffffffffffffffffffff161415610f91576040517f08c379a00000000000000000000000000000000000000000000000000000000081526004018080602001828103825260218152602001806135da6021913960400191505060405180910390fd5b8073ffffffffffffffffffffffffffffffffffffffff16610fb0611d33565b73ffffffffffffffffffffffffffffffffffffffff161480610fdf5750610fde81610fd9611d33565b611d3b565b5b611034576040517f08c379a00000000000000000000000000000000000000000000000000000000081526004018080602001828103825260388152602001806134ab6038913960400191505060405180910390fd5b61103e8383611dcf565b505050565b600061104f6002611e88565b905090565b61106561105f611d33565b82611e9d565b6110ba576040517f08c379a00000000000000000000000000000000000000000000000000000000081526004018080602001828103825260318152602001806136316031913960400191505060405180910390fd5b6110c5838383611f91565b505050565b600061111d82600160008673ffffffffffffffffffffffffffffffffffffffff1673ffffffffffffffffffffffffffffffffffffffff1681526020019081526020016000206121d490919063ffffffff16565b905092915050565b61114083838360405180602001604052806000815250611916565b505050565b6000600c54905090565b6000806111668360026121ee90919063ffffffff16565b50905080915050919050565b60006111a28260405180606001604052806029815260200161350d60299139600261221d9092919063ffffffff16565b9050919050565b606060098054600181600116156101000203166002900480601f0160208091040260200160405190810160405280929190818152602001828054600181600116156101000203166002900480156112415780601f1061121657610100808354040283529160200191611241565b820191906000526020600020905b81548152906001019060200180831161122457829003601f168201915b5050505050905090565b60008073ffffffffffffffffffffffffffffffffffffffff168273ffffffffffffffffffffffffffffffffffffffff1614156112d2576040517f08c379a000000000000000000000000000000000000000000000000000000000815260040180806020018281038252602a8152602001806134e3602a913960400191505060405180910390fd5b611319600160008473ffffffffffffffffffffffffffffffffffffffff1673ffffffffffffffffffffffffffffffffffffffff16815260200190815260200160002061223c565b9050919050565b611328611d33565b73ffffffffffffffffffffffffffffffffffffffff1661134661164d565b73ffffffffffffffffffffffffffffffffffffffff16146113cf576040517f08c379a00000000000000000000000000000000000000000000000000000000081526004018080602001828103825260208152602001807f4f776e61626c653a2063616c6c6572206973206e6f7420746865206f776e657281525060200191505060405180910390fd5b600073ffffffffffffffffffffffffffffffffffffffff16600a60009054906101000a900473ffffffffffffffffffffffffffffffffffffffff1673ffffffffffffffffffffffffffffffffffffffff167f8be0079c531659141344cd1fd0a4f28419497f9722a3daafe3b4186f6b6457e060405160405180910390a36000600a60006101000a81548173ffffffffffffffffffffffffffffffffffffffff021916908373ffffffffffffffffffffffffffffffffffffffff160217905550565b6060600061149d8361124b565b905060008114156114e15760006040519080825280602002602001820160405280156114d85781602001602082028036833780820191505090505b50915050611559565b6060816040519080825280602002602001820160405280156115125781602001602082028036833780820191505090505b50905060008090505b828110156115525761152d85826110ca565b82828151811061153957fe5b602002602001018181525050808060010191505061151b565b8193505050505b919050565b611566611d33565b73ffffffffffffffffffffffffffffffffffffffff1661158461164d565b73ffffffffffffffffffffffffffffffffffffffff161461160d576040517f08c379a00000000000000000000000000000000000000000000000000000000081526004018080602001828103825260208152602001807f4f776e61626c653a2063616c6c6572206973206e6f7420746865206f776e657281525060200191505060405180910390fd5b3373ffffffffffffffffffffffffffffffffffffffff166108fc479081150290604051600060405180830381858888f1935050505061164b57600080fd5b565b6000600a60009054906101000a900473ffffffffffffffffffffffffffffffffffffffff16905090565b606060078054600181600116156101000203166002900480601f01602080910402602001604051908101604052809291908181526020018280546001816001161561010002031660029004801561170f5780601f106116e45761010080835404028352916020019161170f565b820191906000526020600020905b8154815290600101906020018083116116f257829003601f168201915b5050505050905090565b611721611d33565b73ffffffffffffffffffffffffffffffffffffffff168273ffffffffffffffffffffffffffffffffffffffff1614156117c2576040517f08c379a00000000000000000000000000000000000000000000000000000000081526004018080602001828103825260198152602001807f4552433732313a20617070726f766520746f2063616c6c65720000000000000081525060200191505060405180910390fd5b80600560006117cf611d33565b73ffffffffffffffffffffffffffffffffffffffff1673ffffffffffffffffffffffffffffffffffffffff16815260200190815260200160002060008473ffffffffffffffffffffffffffffffffffffffff1673ffffffffffffffffffffffffffffffffffffffff16815260200190815260200160002060006101000a81548160ff0219169083151502179055508173ffffffffffffffffffffffffffffffffffffffff1661187c611d33565b73ffffffffffffffffffffffffffffffffffffffff167f17307eab39ab6107e8899845ad3d59bd9653f200f220920489ca2b5937696c3183604051808215151515815260200191505060405180910390a35050565b60008090505b8151811015611912576118fd338383815181106118f057fe5b6020026020010151612251565b61190561225f565b80806001019150506118d7565b5050565b611927611921611d33565b83611e9d565b61197c576040517f08c379a00000000000000000000000000000000000000000000000000000000081526004018080602001828103825260318152602001806136316031913960400191505060405180910390fd5b61198884848484612273565b50505050565b60606119a961199b6119b0565b6119a4846122e5565b612412565b9050919050565b60606040518060600160405280602d81526020016135ad602d9139905090565b60606040518060600160405280603681526020016135fb60369139905090565b600080600b60009054906101000a900473ffffffffffffffffffffffffffffffffffffffff1690508273ffffffffffffffffffffffffffffffffffffffff168173ffffffffffffffffffffffffffffffffffffffff1663c4552791866040518263ffffffff1660e01b8152600401808273ffffffffffffffffffffffffffffffffffffffff1673ffffffffffffffffffffffffffffffffffffffff16815260200191505060206040518083038186803b158015611aac57600080fd5b505afa158015611ac0573d6000803e3d6000fd5b505050506040513d6020811015611ad657600080fd5b810190808051906020019092919050505073ffffffffffffffffffffffffffffffffffffffff161415611b0d576001915050611b1b565b611b178484611d3b565b9150505b92915050565b611b29611d33565b73ffffffffffffffffffffffffffffffffffffffff16611b4761164d565b73ffffffffffffffffffffffffffffffffffffffff1614611bd0576040517f08c379a00000000000000000000000000000000000000000000000000000000081526004018080602001828103825260208152602001807f4f776e61626c653a2063616c6c6572206973206e6f7420746865206f776e657281525060200191505060405180910390fd5b600073ffffffffffffffffffffffffffffffffffffffff168173ffffffffffffffffffffffffffffffffffffffff161415611c56576040517f08c379a000000000000000000000000000000000000000000000000000000000815260040180806020018281038252602681526020018061340f6026913960400191505060405180910390fd5b8073ffffffffffffffffffffffffffffffffffffffff16600a60009054906101000a900473ffffffffffffffffffffffffffffffffffffffff1673ffffffffffffffffffffffffffffffffffffffff167f8be0079c531659141344cd1fd0a4f28419497f9722a3daafe3b4186f6b6457e060405160405180910390a380600a60006101000a81548173ffffffffffffffffffffffffffffffffffffffff021916908373ffffffffffffffffffffffffffffffffffffffff16021790555050565b6000611d2c82600261245690919063ffffffff16565b9050919050565b600033905090565b6000600560008473ffffffffffffffffffffffffffffffffffffffff1673ffffffffffffffffffffffffffffffffffffffff16815260200190815260200160002060008373ffffffffffffffffffffffffffffffffffffffff1673ffffffffffffffffffffffffffffffffffffffff16815260200190815260200160002060009054906101000a900460ff16905092915050565b816004600083815260200190815260200160002060006101000a81548173ffffffffffffffffffffffffffffffffffffffff021916908373ffffffffffffffffffffffffffffffffffffffff160217905550808273ffffffffffffffffffffffffffffffffffffffff16611e4283611172565b73ffffffffffffffffffffffffffffffffffffffff167f8c5be1e5ebec7d5bd14f71427d1e84f3dd0314c0f7b2291e5b200ac8c7c3b92560405160405180910390a45050565b6000611e9682600001612470565b9050919050565b6000611ea882611d16565b611efd576040517f08c379a000000000000000000000000000000000000000000000000000000000815260040180806020018281038252602c81526020018061347f602c913960400191505060405180910390fd5b6000611f0883611172565b90508073ffffffffffffffffffffffffffffffffffffffff168473ffffffffffffffffffffffffffffffffffffffff161480611f7757508373ffffffffffffffffffffffffffffffffffffffff16611f5f84610e64565b73ffffffffffffffffffffffffffffffffffffffff16145b80611f885750611f878185611d3b565b5b91505092915050565b8273ffffffffffffffffffffffffffffffffffffffff16611fb182611172565b73ffffffffffffffffffffffffffffffffffffffff161461201d576040517f08c379a00000000000000000000000000000000000000000000000000000000081526004018080602001828103825260298152602001806135846029913960400191505060405180910390fd5b600073ffffffffffffffffffffffffffffffffffffffff168273ffffffffffffffffffffffffffffffffffffffff1614156120a3576040517f08c379a00000000000000000000000000000000000000000000000000000000081526004018080602001828103825260248152602001806134356024913960400191505060405180910390fd5b6120ae838383612481565b6120b9600082611dcf565b61210a81600160008673ffffffffffffffffffffffffffffffffffffffff1673ffffffffffffffffffffffffffffffffffffffff16815260200190815260200160002061248690919063ffffffff16565b5061215c81600160008573ffffffffffffffffffffffffffffffffffffffff1673ffffffffffffffffffffffffffffffffffffffff1681526020019081526020016000206124a090919063ffffffff16565b50612173818360026124ba9092919063ffffffff16565b50808273ffffffffffffffffffffffffffffffffffffffff168473ffffffffffffffffffffffffffffffffffffffff167fddf252ad1be2c89b69c2b068fc378daa952ba7f163c4a11628f55a4df523b3ef60405160405180910390a4505050565b60006121e383600001836124ef565b60001c905092915050565b6000806000806122018660000186612572565b915091508160001c8160001c8090509350935050509250929050565b6000612230846000018460001b8461260b565b60001c90509392505050565b600061224a82600001612701565b9050919050565b61225b3382612712565b5050565b600c60008154809291906001019190505550565b61227e848484611f91565b61228a84848484612730565b6122df576040517f08c379a00000000000000000000000000000000000000000000000000000000081526004018080602001828103825260328152602001806133dd6032913960400191505060405180910390fd5b50505050565b6060600082141561232d576040518060400160405280600181526020017f3000000000000000000000000000000000000000000000000000000000000000815250905061240d565b600082905060005b60008214612357578080600101915050600a828161234f57fe5b049150612335565b6060816040519080825280601f01601f19166020018201604052801561238c5781602001600182028036833780820191505090505b50905060006001830390505b6000861461240557600a86816123aa57fe5b0660300160f81b828280600190039350815181106123c457fe5b60200101907effffffffffffffffffffffffffffffffffffffffffffffffffffffffffffff1916908160001a905350600a86816123fd57fe5b049550612398565b819450505050505b919050565b606061244e8383604051806020016040528060008152506040518060200160405280600081525060405180602001604052806000815250612975565b905092915050565b6000612468836000018360001b612c3b565b905092915050565b600081600001805490509050919050565b505050565b6000612498836000018360001b612c5e565b905092915050565b60006124b2836000018360001b612d46565b905092915050565b60006124e6846000018460001b8473ffffffffffffffffffffffffffffffffffffffff1660001b612db6565b90509392505050565b600081836000018054905011612550576040517f08c379a00000000000000000000000000000000000000000000000000000000081526004018080602001828103825260228152602001806133bb6022913960400191505060405180910390fd5b82600001828154811061255f57fe5b9060005260206000200154905092915050565b600080828460000180549050116125d4576040517f08c379a00000000000000000000000000000000000000000000000000000000081526004018080602001828103825260228152602001806135366022913960400191505060405180910390fd5b60008460000184815481106125e557fe5b906000526020600020906002020190508060000154816001015492509250509250929050565b600080846001016000858152602001908152602001600020549050600081141583906126d2576040517f08c379a00000000000000000000000000000000000000000000000000000000081526004018080602001828103825283818151815260200191508051906020019080838360005b8381101561269757808201518184015260208101905061267c565b50505050905090810190601f1680156126c45780820380516001836020036101000a031916815260200191505b509250505060405180910390fd5b508460000160018203815481106126e557fe5b9060005260206000209060020201600101549150509392505050565b600081600001805490509050919050565b61272c828260405180602001604052806000815250612e92565b5050565b60006127518473ffffffffffffffffffffffffffffffffffffffff16612f03565b61275e576001905061296d565b60606128f463150b7a0260e01b612773611d33565b888787604051602401808573ffffffffffffffffffffffffffffffffffffffff1673ffffffffffffffffffffffffffffffffffffffff1681526020018473ffffffffffffffffffffffffffffffffffffffff1673ffffffffffffffffffffffffffffffffffffffff16815260200183815260200180602001828103825283818151815260200191508051906020019080838360005b83811015612823578082015181840152602081019050612808565b50505050905090810190601f1680156128505780820380516001836020036101000a031916815260200191505b5095505050505050604051602081830303815290604052907bffffffffffffffffffffffffffffffffffffffffffffffffffffffff19166020820180517bffffffffffffffffffffffffffffffffffffffffffffffffffffffff83818316178352505050506040518060600160405280603281526020016133dd603291398773ffffffffffffffffffffffffffffffffffffffff16612f169092919063ffffffff16565b9050600081806020019051602081101561290d57600080fd5b8101908080519060200190929190505050905063150b7a0260e01b7bffffffffffffffffffffffffffffffffffffffffffffffffffffffff1916817bffffffffffffffffffffffffffffffffffffffffffffffffffffffff191614925050505b949350505050565b6060808690506060869050606086905060608690506060869050606081518351855187518951010101016040519080825280601f01601f1916602001820160405280156129d15781602001600182028036833780820191505090505b5090506060819050600080905060008090505b8851811015612a52578881815181106129f957fe5b602001015160f81c60f81b838380600101945081518110612a1657fe5b60200101907effffffffffffffffffffffffffffffffffffffffffffffffffffffffffffff1916908160001a90535080806001019150506129e4565b5060008090505b8751811015612ac757878181518110612a6e57fe5b602001015160f81c60f81b838380600101945081518110612a8b57fe5b60200101907effffffffffffffffffffffffffffffffffffffffffffffffffffffffffffff1916908160001a9053508080600101915050612a59565b5060008090505b8651811015612b3c57868181518110612ae357fe5b602001015160f81c60f81b838380600101945081518110612b0057fe5b60200101907effffffffffffffffffffffffffffffffffffffffffffffffffffffffffffff1916908160001a9053508080600101915050612ace565b5060008090505b8551811015612bb157858181518110612b5857fe5b602001015160f81c60f81b838380600101945081518110612b7557fe5b60200101907effffffffffffffffffffffffffffffffffffffffffffffffffffffffffffff1916908160001a9053508080600101915050612b43565b5060008090505b8451811015612c2657848181518110612bcd57fe5b602001015160f81c60f81b838380600101945081518110612bea57fe5b60200101907effffffffffffffffffffffffffffffffffffffffffffffffffffffffffffff1916908160001a9053508080600101915050612bb8565b50819850505050505050505095945050505050565b600080836001016000848152602001908152602001600020541415905092915050565b60008083600101600084815260200190815260200160002054905060008114612d3a5760006001820390506000600186600001805490500390506000866000018281548110612ca957fe5b9060005260206000200154905080876000018481548110612cc657fe5b9060005260206000200181905550600183018760010160008381526020019081526020016000208190555086600001805480612cfe57fe5b60019003818190600052602060002001600090559055866001016000878152602001908152602001600020600090556001945050505050612d40565b60009150505b92915050565b6000612d528383612f2e565b612dab578260000182908060018154018082558091505060019003906000526020600020016000909190919091505582600001805490508360010160008481526020019081526020016000208190555060019050612db0565b600090505b92915050565b6000808460010160008581526020019081526020016000205490506000811415612e5d57846000016040518060400160405280868152602001858152509080600181540180825580915050600190039060005260206000209060020201600090919091909150600082015181600001556020820151816001015550508460000180549050856001016000868152602001908152602001600020819055506001915050612e8b565b82856000016001830381548110612e7057fe5b90600052602060002090600202016001018190555060009150505b9392505050565b612e9c8383612f51565b612ea96000848484612730565b612efe576040517f08c379a00000000000000000000000000000000000000000000000000000000081526004018080602001828103825260328152602001806133dd6032913960400191505060405180910390fd5b505050565b600080823b905060008111915050919050565b6060612f258484600085613145565b90509392505050565b600080836001016000848152602001908152602001600020541415905092915050565b600073ffffffffffffffffffffffffffffffffffffffff168273ffffffffffffffffffffffffffffffffffffffff161415612ff4576040517f08c379a00000000000000000000000000000000000000000000000000000000081526004018080602001828103825260208152602001807f4552433732313a206d696e7420746f20746865207a65726f206164647265737381525060200191505060405180910390fd5b612ffd81611d16565b15613070576040517f08c379a000000000000000000000000000000000000000000000000000000000815260040180806020018281038252601c8152602001807f4552433732313a20746f6b656e20616c7265616479206d696e7465640000000081525060200191505060405180910390fd5b61307c60008383612481565b6130cd81600160008573ffffffffffffffffffffffffffffffffffffffff1673ffffffffffffffffffffffffffffffffffffffff1681526020019081526020016000206124a090919063ffffffff16565b506130e4818360026124ba9092919063ffffffff16565b50808273ffffffffffffffffffffffffffffffffffffffff16600073ffffffffffffffffffffffffffffffffffffffff167fddf252ad1be2c89b69c2b068fc378daa952ba7f163c4a11628f55a4df523b3ef60405160405180910390a45050565b6060824710156131a0576040517f08c379a00000000000000000000000000000000000000000000000000000000081526004018080602001828103825260268152602001806134596026913960400191505060405180910390fd5b6131a985612f03565b61321b576040517f08c379a000000000000000000000000000000000000000000000000000000000815260040180806020018281038252601d8152602001807f416464726573733a2063616c6c20746f206e6f6e2d636f6e747261637400000081525060200191505060405180910390fd5b600060608673ffffffffffffffffffffffffffffffffffffffff1685876040518082805190602001908083835b6020831061326b5780518252602082019150602081019050602083039250613248565b6001836020036101000a03801982511681845116808217855250505050505090500191505060006040518083038185875af1925050503d80600081146132cd576040519150601f19603f3d011682016040523d82523d6000602084013e6132d2565b606091505b50915091506132e28282866132ee565b92505050949350505050565b606083156132fe578290506133b3565b6000835111156133115782518084602001fd5b816040517f08c379a00000000000000000000000000000000000000000000000000000000081526004018080602001828103825283818151815260200191508051906020019080838360005b8381101561337857808201518184015260208101905061335d565b50505050905090810190601f1680156133a55780820380516001836020036101000a031916815260200191505b509250505060405180910390fd5b939250505056fe456e756d657261626c655365743a20696e646578206f7574206f6620626f756e64734552433732313a207472616e7366657220746f206e6f6e20455243373231526563656976657220696d706c656d656e7465724f776e61626c653a206e6577206f776e657220697320746865207a65726f20616464726573734552433732313a207472616e7366657220746f20746865207a65726f2061646472657373416464726573733a20696e73756666696369656e742062616c616e636520666f722063616c6c4552433732313a206f70657261746f7220717565727920666f72206e6f6e6578697374656e7420746f6b656e4552433732313a20617070726f76652063616c6c6572206973206e6f74206f776e6572206e6f7220617070726f76656420666f7220616c6c4552433732313a2062616c616e636520717565727920666f7220746865207a65726f20616464726573734552433732313a206f776e657220717565727920666f72206e6f6e6578697374656e7420746f6b656e456e756d657261626c654d61703a20696e646578206f7574206f6620626f756e64734552433732313a20617070726f76656420717565727920666f72206e6f6e6578697374656e7420746f6b656e4552433732313a207472616e73666572206f6620746f6b656e2074686174206973206e6f74206f776e687474703a2f2f6461707065722d6261636b656e642e76657263656c2e6170702f6170692f6f70656e7365612f4552433732313a20617070726f76616c20746f2063757272656e74206f776e6572687474703a2f2f6461707065722d6261636b656e642e76657263656c2e6170702f6170692f6461707065724465736372697074696f6e4552433732313a207472616e736665722063616c6c6572206973206e6f74206f776e6572206e6f7220617070726f766564a2646970667358221220e83ebe67723036d503108ae0540846a80cb2f77802362baf0d38978ba69ee00864736f6c63430006030033",
  "source": "// SPDX-License-Identifier: MIT\n\npragma solidity >0.6.2;\nimport \"./ERC721Tradable.sol\";\nimport \"@openzeppelin/contracts/access/Ownable.sol\";\n\ncontract Dapper is ERC721Tradable {\n    using SafeMath for uint256;\n\n    constructor(address _proxyRegistryAddress)\n        public\n        ERC721Tradable(\"Dappers\", \"DAP\", _proxyRegistryAddress)\n    {}\n\n    function tokensOfOwner(address _owner)\n        external\n        view\n        returns (uint256[] memory)\n    {\n        uint256 tokenCount = balanceOf(_owner);\n        if (tokenCount == 0) {\n            return new uint256[](0);\n        } else {\n            uint256[] memory result = new uint256[](tokenCount);\n            uint256 index;\n            for (index = 0; index < tokenCount; index++) {\n                result[index] = tokenOfOwnerByIndex(_owner, index);\n            }\n            return result;\n        }\n    }\n\n     function mintDap(uint256[] memory dapTokens) public payable {\n      for (uint i = 0; i < dapTokens.length; i++) {\n          mintToken(msg.sender, dapTokens[i]);\n          _incrementTokenCount();\n      }\n    }\n\n\n    function mintToken(address _to, uint256 dapTokenId) private {\n        _safeMint(msg.sender, dapTokenId);\n    }\n\n    function withdrawAll() public payable onlyOwner {\n        require(payable(msg.sender).send(address(this).balance));\n    }\n\n    function baseTokenURI() public pure override returns (string memory) {\n        return \"http://dapper-backend.vercel.app/api/opensea/\";\n    }\n\n    function contractURI() public view returns (string memory) {\n        return \"http://dapper-backend.vercel.app/api/dapperDescription\";\n    }\n}",
  "sourcePath": "/Users/alex/Desktop/dapper/dapper_contract/contracts/Dapper.sol",
  "compiler": {
    "name": "solc",
    "version": "0.6.3+commit.8dda9521.Emscripten.clang"
  },
  "schemaVersion": "3.3.4",
  "updatedAt": "2021-08-15T05:51:11.293Z",
  "networkType": "ethereum",
  "devdoc": {
    "methods": {
      "approve(address,uint256)": {
        "details": "See {IERC721-approve}."
      },
      "balanceOf(address)": {
        "details": "See {IERC721-balanceOf}."
      },
      "baseURI()": {
        "details": "Returns the base URI set via {_setBaseURI}. This will be automatically added as a prefix in {tokenURI} to each token's URI, or to the token ID if no specific URI is set for that token ID."
      },
      "getApproved(uint256)": {
        "details": "See {IERC721-getApproved}."
      },
      "name()": {
        "details": "See {IERC721Metadata-name}."
      },
      "owner()": {
        "details": "Returns the address of the current owner."
      },
      "ownerOf(uint256)": {
        "details": "See {IERC721-ownerOf}."
      },
      "renounceOwnership()": {
        "details": "Leaves the contract without owner. It will not be possible to call `onlyOwner` functions anymore. Can only be called by the current owner.     * NOTE: Renouncing ownership will leave the contract without an owner, thereby removing any functionality that is only available to the owner."
      },
      "safeTransferFrom(address,address,uint256)": {
        "details": "See {IERC721-safeTransferFrom}."
      },
      "safeTransferFrom(address,address,uint256,bytes)": {
        "details": "See {IERC721-safeTransferFrom}."
      },
      "setApprovalForAll(address,bool)": {
        "details": "See {IERC721-setApprovalForAll}."
      },
      "supportsInterface(bytes4)": {
        "details": "See {IERC165-supportsInterface}.     * Time complexity O(1), guaranteed to always use less than 30 000 gas."
      },
      "symbol()": {
        "details": "See {IERC721Metadata-symbol}."
      },
      "tokenByIndex(uint256)": {
        "details": "See {IERC721Enumerable-tokenByIndex}."
      },
      "tokenOfOwnerByIndex(address,uint256)": {
        "details": "See {IERC721Enumerable-tokenOfOwnerByIndex}."
      },
      "totalSupply()": {
        "details": "See {IERC721Enumerable-totalSupply}."
      },
      "transferFrom(address,address,uint256)": {
        "details": "See {IERC721-transferFrom}."
      },
      "transferOwnership(address)": {
        "details": "Transfers ownership of the contract to a new account (`newOwner`). Can only be called by the current owner."
      }
    }
  },
  "userdoc": {
    "methods": {
      "isApprovedForAll(address,address)": {
        "notice": "Override isApprovedForAll to whitelist user's OpenSea proxy accounts to enable gas-less listings."
      }
    }
  }
}